{
  "_format": "hh-sol-artifact-1",
  "contractName": "MyEpicNFT",
  "sourceName": "contracts/MyEpicNFT.sol",
  "abi": [
    {
      "inputs": [],
      "stateMutability": "nonpayable",
      "type": "constructor"
    },
    {
      "anonymous": false,
      "inputs": [
        {
          "indexed": true,
          "internalType": "address",
          "name": "owner",
          "type": "address"
        },
        {
          "indexed": true,
          "internalType": "address",
          "name": "approved",
          "type": "address"
        },
        {
          "indexed": true,
          "internalType": "uint256",
          "name": "tokenId",
          "type": "uint256"
        }
      ],
      "name": "Approval",
      "type": "event"
    },
    {
      "anonymous": false,
      "inputs": [
        {
          "indexed": true,
          "internalType": "address",
          "name": "owner",
          "type": "address"
        },
        {
          "indexed": true,
          "internalType": "address",
          "name": "operator",
          "type": "address"
        },
        {
          "indexed": false,
          "internalType": "bool",
          "name": "approved",
          "type": "bool"
        }
      ],
      "name": "ApprovalForAll",
      "type": "event"
    },
    {
      "anonymous": false,
      "inputs": [
        {
          "indexed": false,
          "internalType": "address",
          "name": "sender",
          "type": "address"
        },
        {
          "indexed": false,
          "internalType": "uint256",
          "name": "tokenId",
          "type": "uint256"
        }
      ],
      "name": "NewEpicNFTMinted",
      "type": "event"
    },
    {
      "anonymous": false,
      "inputs": [
        {
          "indexed": true,
          "internalType": "address",
          "name": "from",
          "type": "address"
        },
        {
          "indexed": true,
          "internalType": "address",
          "name": "to",
          "type": "address"
        },
        {
          "indexed": true,
          "internalType": "uint256",
          "name": "tokenId",
          "type": "uint256"
        }
      ],
      "name": "Transfer",
      "type": "event"
    },
    {
      "inputs": [
        {
          "internalType": "address",
          "name": "to",
          "type": "address"
        },
        {
          "internalType": "uint256",
          "name": "tokenId",
          "type": "uint256"
        }
      ],
      "name": "approve",
      "outputs": [],
      "stateMutability": "nonpayable",
      "type": "function"
    },
    {
      "inputs": [
        {
          "internalType": "address",
          "name": "owner",
          "type": "address"
        }
      ],
      "name": "balanceOf",
      "outputs": [
        {
          "internalType": "uint256",
          "name": "",
          "type": "uint256"
        }
      ],
      "stateMutability": "view",
      "type": "function"
    },
    {
      "inputs": [
        {
          "internalType": "uint256",
          "name": "tokenId",
          "type": "uint256"
        }
      ],
      "name": "getApproved",
      "outputs": [
        {
          "internalType": "address",
          "name": "",
          "type": "address"
        }
      ],
      "stateMutability": "view",
      "type": "function"
    },
    {
      "inputs": [
        {
          "internalType": "address",
          "name": "owner",
          "type": "address"
        },
        {
          "internalType": "address",
          "name": "operator",
          "type": "address"
        }
      ],
      "name": "isApprovedForAll",
      "outputs": [
        {
          "internalType": "bool",
          "name": "",
          "type": "bool"
        }
      ],
      "stateMutability": "view",
      "type": "function"
    },
    {
      "inputs": [],
      "name": "makeAnEpicNFT",
      "outputs": [],
      "stateMutability": "nonpayable",
      "type": "function"
    },
    {
      "inputs": [],
      "name": "name",
      "outputs": [
        {
          "internalType": "string",
          "name": "",
          "type": "string"
        }
      ],
      "stateMutability": "view",
      "type": "function"
    },
    {
      "inputs": [
        {
          "internalType": "uint256",
          "name": "tokenId",
          "type": "uint256"
        }
      ],
      "name": "ownerOf",
      "outputs": [
        {
          "internalType": "address",
          "name": "",
          "type": "address"
        }
      ],
      "stateMutability": "view",
      "type": "function"
    },
    {
      "inputs": [
        {
          "internalType": "address",
          "name": "from",
          "type": "address"
        },
        {
          "internalType": "address",
          "name": "to",
          "type": "address"
        },
        {
          "internalType": "uint256",
          "name": "tokenId",
          "type": "uint256"
        }
      ],
      "name": "safeTransferFrom",
      "outputs": [],
      "stateMutability": "nonpayable",
      "type": "function"
    },
    {
      "inputs": [
        {
          "internalType": "address",
          "name": "from",
          "type": "address"
        },
        {
          "internalType": "address",
          "name": "to",
          "type": "address"
        },
        {
          "internalType": "uint256",
          "name": "tokenId",
          "type": "uint256"
        },
        {
          "internalType": "bytes",
          "name": "_data",
          "type": "bytes"
        }
      ],
      "name": "safeTransferFrom",
      "outputs": [],
      "stateMutability": "nonpayable",
      "type": "function"
    },
    {
      "inputs": [
        {
          "internalType": "address",
          "name": "operator",
          "type": "address"
        },
        {
          "internalType": "bool",
          "name": "approved",
          "type": "bool"
        }
      ],
      "name": "setApprovalForAll",
      "outputs": [],
      "stateMutability": "nonpayable",
      "type": "function"
    },
    {
      "inputs": [
        {
          "internalType": "bytes4",
          "name": "interfaceId",
          "type": "bytes4"
        }
      ],
      "name": "supportsInterface",
      "outputs": [
        {
          "internalType": "bool",
          "name": "",
          "type": "bool"
        }
      ],
      "stateMutability": "view",
      "type": "function"
    },
    {
      "inputs": [],
      "name": "symbol",
      "outputs": [
        {
          "internalType": "string",
          "name": "",
          "type": "string"
        }
      ],
      "stateMutability": "view",
      "type": "function"
    },
    {
      "inputs": [
        {
          "internalType": "uint256",
          "name": "tokenId",
          "type": "uint256"
        }
      ],
      "name": "tokenURI",
      "outputs": [
        {
          "internalType": "string",
          "name": "",
          "type": "string"
        }
      ],
      "stateMutability": "view",
      "type": "function"
    },
    {
      "inputs": [
        {
          "internalType": "address",
          "name": "from",
          "type": "address"
        },
        {
          "internalType": "address",
          "name": "to",
          "type": "address"
        },
        {
          "internalType": "uint256",
          "name": "tokenId",
          "type": "uint256"
        }
      ],
      "name": "transferFrom",
      "outputs": [],
      "stateMutability": "nonpayable",
      "type": "function"
    }
  ],
  "bytecode": "0x60806040523480156200001157600080fd5b506040518060400160405280600b81526020017f41646f7261626c654e46540000000000000000000000000000000000000000008152506040518060400160405280600481526020017f41444c5600000000000000000000000000000000000000000000000000000000815250816000908051906020019062000096929190620001cf565b508060019080519060200190620000af929190620001cf565b505050620000fd6040518060400160405280601e81526020017f54686973206973206d79204e465420636f6e74726163742e20576f61682100008152506200010360201b62000b8c1760201c565b620003ac565b620001a3816040516024016200011a9190620002c0565b6040516020818303038152906040527f41304fac000000000000000000000000000000000000000000000000000000007bffffffffffffffffffffffffffffffffffffffffffffffffffffffff19166020820180517bffffffffffffffffffffffffffffffffffffffffffffffffffffffff8381831617835250505050620001a660201b60201c565b50565b60008151905060006a636f6e736f6c652e6c6f679050602083016000808483855afa5050505050565b828054620001dd9062000336565b90600052602060002090601f0160209004810192826200020157600085556200024d565b82601f106200021c57805160ff19168380011785556200024d565b828001600101855582156200024d579182015b828111156200024c5782518255916020019190600101906200022f565b5b5090506200025c919062000260565b5090565b5b808211156200027b57600081600090555060010162000261565b5090565b60006200028c82620002e4565b620002988185620002ef565b9350620002aa81856020860162000300565b620002b5816200039b565b840191505092915050565b60006020820190508181036000830152620002dc81846200027f565b905092915050565b600081519050919050565b600082825260208201905092915050565b60005b838110156200032057808201518184015260208101905062000303565b8381111562000330576000848401525b50505050565b600060028204905060018216806200034f57607f821691505b602082108114156200036657620003656200036c565b5b50919050565b7f4e487b7100000000000000000000000000000000000000000000000000000000600052602260045260246000fd5b6000601f19601f8301169050919050565b612c6380620003bc6000396000f3fe608060405234801561001057600080fd5b50600436106100ea5760003560e01c806370a082311161008c578063b88d4fde11610066578063b88d4fde1461025b578063c87b56dd14610277578063de9d132f146102a7578063e985e9c5146102b1576100ea565b806370a08231146101f157806395d89b4114610221578063a22cb4651461023f576100ea565b8063095ea7b3116100c8578063095ea7b31461016d57806323b872dd1461018957806342842e0e146101a55780636352211e146101c1576100ea565b806301ffc9a7146100ef57806306fdde031461011f578063081812fc1461013d575b600080fd5b61010960048036038101906101049190611d9b565b6102e1565b6040516101169190612588565b60405180910390f35b6101276103c3565b60405161013491906125a3565b60405180910390f35b61015760048036038101906101529190611ded565b610455565b60405161016491906124f8565b60405180910390f35b61018760048036038101906101829190611d5f565b6104da565b005b6101a3600480360381019061019e9190611c59565b6105f2565b005b6101bf60048036038101906101ba9190611c59565b610652565b005b6101db60048036038101906101d69190611ded565b610672565b6040516101e891906124f8565b60405180910390f35b61020b60048036038101906102069190611bf4565b610724565b6040516102189190612803565b60405180910390f35b6102296107dc565b60405161023691906125a3565b60405180910390f35b61025960048036038101906102549190611d23565b61086e565b005b61027560048036038101906102709190611ca8565b610884565b005b610291600480360381019061028c9190611ded565b6108e6565b60405161029e91906125a3565b60405180910390f35b6102af610a38565b005b6102cb60048036038101906102c69190611c1d565b610af8565b6040516102d89190612588565b60405180910390f35b60007f80ac58cd000000000000000000000000000000000000000000000000000000007bffffffffffffffffffffffffffffffffffffffffffffffffffffffff1916827bffffffffffffffffffffffffffffffffffffffffffffffffffffffff191614806103ac57507f5b5e139f000000000000000000000000000000000000000000000000000000007bffffffffffffffffffffffffffffffffffffffffffffffffffffffff1916827bffffffffffffffffffffffffffffffffffffffffffffffffffffffff1916145b806103bc57506103bb82610c25565b5b9050919050565b6060600080546103d290612a33565b80601f01602080910402602001604051908101604052809291908181526020018280546103fe90612a33565b801561044b5780601f106104205761010080835404028352916020019161044b565b820191906000526020600020905b81548152906001019060200180831161042e57829003601f168201915b5050505050905090565b600061046082610c8f565b61049f576040517f08c379a000000000000000000000000000000000000000000000000000000000815260040161049690612763565b60405180910390fd5b6004600083815260200190815260200160002060009054906101000a900473ffffffffffffffffffffffffffffffffffffffff169050919050565b60006104e582610672565b90508073ffffffffffffffffffffffffffffffffffffffff168373ffffffffffffffffffffffffffffffffffffffff161415610556576040517f08c379a000000000000000000000000000000000000000000000000000000000815260040161054d906127c3565b60405180910390fd5b8073ffffffffffffffffffffffffffffffffffffffff16610575610cfb565b73ffffffffffffffffffffffffffffffffffffffff1614806105a457506105a38161059e610cfb565b610af8565b5b6105e3576040517f08c379a00000000000000000000000000000000000000000000000000000000081526004016105da906126a3565b60405180910390fd5b6105ed8383610d03565b505050565b6106036105fd610cfb565b82610dbc565b610642576040517f08c379a0000000000000000000000000000000000000000000000000000000008152600401610639906127e3565b60405180910390fd5b61064d838383610e9a565b505050565b61066d83838360405180602001604052806000815250610884565b505050565b6000806002600084815260200190815260200160002060009054906101000a900473ffffffffffffffffffffffffffffffffffffffff169050600073ffffffffffffffffffffffffffffffffffffffff168173ffffffffffffffffffffffffffffffffffffffff16141561071b576040517f08c379a0000000000000000000000000000000000000000000000000000000008152600401610712906126e3565b60405180910390fd5b80915050919050565b60008073ffffffffffffffffffffffffffffffffffffffff168273ffffffffffffffffffffffffffffffffffffffff161415610795576040517f08c379a000000000000000000000000000000000000000000000000000000000815260040161078c906126c3565b60405180910390fd5b600360008373ffffffffffffffffffffffffffffffffffffffff1673ffffffffffffffffffffffffffffffffffffffff168152602001908152602001600020549050919050565b6060600180546107eb90612a33565b80601f016020809104026020016040519081016040528092919081815260200182805461081790612a33565b80156108645780601f1061083957610100808354040283529160200191610864565b820191906000526020600020905b81548152906001019060200180831161084757829003601f168201915b5050505050905090565b610880610879610cfb565b83836110f6565b5050565b61089561088f610cfb565b83610dbc565b6108d4576040517f08c379a00000000000000000000000000000000000000000000000000000000081526004016108cb906127e3565b60405180910390fd5b6108e084848484611263565b50505050565b60606108f182610c8f565b610930576040517f08c379a000000000000000000000000000000000000000000000000000000000815260040161092790612743565b60405180910390fd5b600060066000848152602001908152602001600020805461095090612a33565b80601f016020809104026020016040519081016040528092919081815260200182805461097c90612a33565b80156109c95780601f1061099e576101008083540402835291602001916109c9565b820191906000526020600020905b8154815290600101906020018083116109ac57829003601f168201915b5050505050905060006109da6112bf565b90506000815114156109f0578192505050610a33565b600082511115610a25578082604051602001610a0d9291906124d4565b60405160208183030381529060405292505050610a33565b610a2e846112d6565b925050505b919050565b6000610a44600761137d565b9050610a50338261138b565b610a8f816040518060400160405280601d81526020017f68747470733a2f2f6a736f6e6b65657065722e636f6d2f622f575746470000008152506113a9565b610ab2604051806060016040528060258152602001612c0960259139823361141d565b610abc60076114bc565b7febb98688741ffa4c7589bf325de30cf7becb63de567842e1ccdb6cb949fdc82c3382604051610aed92919061255f565b60405180910390a150565b6000600560008473ffffffffffffffffffffffffffffffffffffffff1673ffffffffffffffffffffffffffffffffffffffff16815260200190815260200160002060008373ffffffffffffffffffffffffffffffffffffffff1673ffffffffffffffffffffffffffffffffffffffff16815260200190815260200160002060009054906101000a900460ff16905092915050565b610c2281604051602401610ba091906125a3565b6040516020818303038152906040527f41304fac000000000000000000000000000000000000000000000000000000007bffffffffffffffffffffffffffffffffffffffffffffffffffffffff19166020820180517bffffffffffffffffffffffffffffffffffffffffffffffffffffffff83818316178352505050506114d2565b50565b60007f01ffc9a7000000000000000000000000000000000000000000000000000000007bffffffffffffffffffffffffffffffffffffffffffffffffffffffff1916827bffffffffffffffffffffffffffffffffffffffffffffffffffffffff1916149050919050565b60008073ffffffffffffffffffffffffffffffffffffffff166002600084815260200190815260200160002060009054906101000a900473ffffffffffffffffffffffffffffffffffffffff1673ffffffffffffffffffffffffffffffffffffffff1614159050919050565b600033905090565b816004600083815260200190815260200160002060006101000a81548173ffffffffffffffffffffffffffffffffffffffff021916908373ffffffffffffffffffffffffffffffffffffffff160217905550808273ffffffffffffffffffffffffffffffffffffffff16610d7683610672565b73ffffffffffffffffffffffffffffffffffffffff167f8c5be1e5ebec7d5bd14f71427d1e84f3dd0314c0f7b2291e5b200ac8c7c3b92560405160405180910390a45050565b6000610dc782610c8f565b610e06576040517f08c379a0000000000000000000000000000000000000000000000000000000008152600401610dfd90612683565b60405180910390fd5b6000610e1183610672565b90508073ffffffffffffffffffffffffffffffffffffffff168473ffffffffffffffffffffffffffffffffffffffff161480610e8057508373ffffffffffffffffffffffffffffffffffffffff16610e6884610455565b73ffffffffffffffffffffffffffffffffffffffff16145b80610e915750610e908185610af8565b5b91505092915050565b8273ffffffffffffffffffffffffffffffffffffffff16610eba82610672565b73ffffffffffffffffffffffffffffffffffffffff1614610f10576040517f08c379a0000000000000000000000000000000000000000000000000000000008152600401610f0790612783565b60405180910390fd5b600073ffffffffffffffffffffffffffffffffffffffff168273ffffffffffffffffffffffffffffffffffffffff161415610f80576040517f08c379a0000000000000000000000000000000000000000000000000000000008152600401610f7790612643565b60405180910390fd5b610f8b8383836114fb565b610f96600082610d03565b6001600360008573ffffffffffffffffffffffffffffffffffffffff1673ffffffffffffffffffffffffffffffffffffffff1681526020019081526020016000206000828254610fe69190612949565b925050819055506001600360008473ffffffffffffffffffffffffffffffffffffffff1673ffffffffffffffffffffffffffffffffffffffff168152602001908152602001600020600082825461103d91906128c2565b92505081905550816002600083815260200190815260200160002060006101000a81548173ffffffffffffffffffffffffffffffffffffffff021916908373ffffffffffffffffffffffffffffffffffffffff160217905550808273ffffffffffffffffffffffffffffffffffffffff168473ffffffffffffffffffffffffffffffffffffffff167fddf252ad1be2c89b69c2b068fc378daa952ba7f163c4a11628f55a4df523b3ef60405160405180910390a4505050565b8173ffffffffffffffffffffffffffffffffffffffff168373ffffffffffffffffffffffffffffffffffffffff161415611165576040517f08c379a000000000000000000000000000000000000000000000000000000000815260040161115c90612663565b60405180910390fd5b80600560008573ffffffffffffffffffffffffffffffffffffffff1673ffffffffffffffffffffffffffffffffffffffff16815260200190815260200160002060008473ffffffffffffffffffffffffffffffffffffffff1673ffffffffffffffffffffffffffffffffffffffff16815260200190815260200160002060006101000a81548160ff0219169083151502179055508173ffffffffffffffffffffffffffffffffffffffff168373ffffffffffffffffffffffffffffffffffffffff167f17307eab39ab6107e8899845ad3d59bd9653f200f220920489ca2b5937696c31836040516112569190612588565b60405180910390a3505050565b61126e848484610e9a565b61127a84848484611500565b6112b9576040517f08c379a00000000000000000000000000000000000000000000000000000000081526004016112b090612603565b60405180910390fd5b50505050565b606060405180602001604052806000815250905090565b60606112e182610c8f565b611320576040517f08c379a0000000000000000000000000000000000000000000000000000000008152600401611317906127a3565b60405180910390fd5b600061132a6112bf565b9050600081511161134a5760405180602001604052806000815250611375565b8061135484611697565b6040516020016113659291906124d4565b6040516020818303038152906040525b915050919050565b600081600001549050919050565b6113a5828260405180602001604052806000815250611844565b5050565b6113b282610c8f565b6113f1576040517f08c379a00000000000000000000000000000000000000000000000000000000081526004016113e890612703565b60405180910390fd5b80600660008481526020019081526020016000209080519060200190611418929190611a80565b505050565b6114b7838383604051602401611435939291906125c5565b6040516020818303038152906040527fe3849f79000000000000000000000000000000000000000000000000000000007bffffffffffffffffffffffffffffffffffffffffffffffffffffffff19166020820180517bffffffffffffffffffffffffffffffffffffffffffffffffffffffff83818316178352505050506114d2565b505050565b6001816000016000828254019250508190555050565b60008151905060006a636f6e736f6c652e6c6f679050602083016000808483855afa5050505050565b505050565b60006115218473ffffffffffffffffffffffffffffffffffffffff1661189f565b1561168a578373ffffffffffffffffffffffffffffffffffffffff1663150b7a0261154a610cfb565b8786866040518563ffffffff1660e01b815260040161156c9493929190612513565b602060405180830381600087803b15801561158657600080fd5b505af19250505080156115b757506040513d601f19601f820116820180604052508101906115b49190611dc4565b60015b61163a573d80600081146115e7576040519150601f19603f3d011682016040523d82523d6000602084013e6115ec565b606091505b50600081511415611632576040517f08c379a000000000000000000000000000000000000000000000000000000000815260040161162990612603565b60405180910390fd5b805181602001fd5b63150b7a0260e01b7bffffffffffffffffffffffffffffffffffffffffffffffffffffffff1916817bffffffffffffffffffffffffffffffffffffffffffffffffffffffff19161491505061168f565b600190505b949350505050565b606060008214156116df576040518060400160405280600181526020017f3000000000000000000000000000000000000000000000000000000000000000815250905061183f565b600082905060005b600082146117115780806116fa90612a65565b915050600a8261170a9190612918565b91506116e7565b60008167ffffffffffffffff811115611753577f4e487b7100000000000000000000000000000000000000000000000000000000600052604160045260246000fd5b6040519080825280601f01601f1916602001820160405280156117855781602001600182028036833780820191505090505b5090505b600085146118385760018261179e9190612949565b9150600a856117ad9190612aae565b60306117b991906128c2565b60f81b8183815181106117f5577f4e487b7100000000000000000000000000000000000000000000000000000000600052603260045260246000fd5b60200101907effffffffffffffffffffffffffffffffffffffffffffffffffffffffffffff1916908160001a905350600a856118319190612918565b9450611789565b8093505050505b919050565b61184e83836118b2565b61185b6000848484611500565b61189a576040517f08c379a000000000000000000000000000000000000000000000000000000000815260040161189190612603565b60405180910390fd5b505050565b600080823b905060008111915050919050565b600073ffffffffffffffffffffffffffffffffffffffff168273ffffffffffffffffffffffffffffffffffffffff161415611922576040517f08c379a000000000000000000000000000000000000000000000000000000000815260040161191990612723565b60405180910390fd5b61192b81610c8f565b1561196b576040517f08c379a000000000000000000000000000000000000000000000000000000000815260040161196290612623565b60405180910390fd5b611977600083836114fb565b6001600360008473ffffffffffffffffffffffffffffffffffffffff1673ffffffffffffffffffffffffffffffffffffffff16815260200190815260200160002060008282546119c791906128c2565b92505081905550816002600083815260200190815260200160002060006101000a81548173ffffffffffffffffffffffffffffffffffffffff021916908373ffffffffffffffffffffffffffffffffffffffff160217905550808273ffffffffffffffffffffffffffffffffffffffff16600073ffffffffffffffffffffffffffffffffffffffff167fddf252ad1be2c89b69c2b068fc378daa952ba7f163c4a11628f55a4df523b3ef60405160405180910390a45050565b828054611a8c90612a33565b90600052602060002090601f016020900481019282611aae5760008555611af5565b82601f10611ac757805160ff1916838001178555611af5565b82800160010185558215611af5579182015b82811115611af4578251825591602001919060010190611ad9565b5b509050611b029190611b06565b5090565b5b80821115611b1f576000816000905550600101611b07565b5090565b6000611b36611b318461284f565b61281e565b905082815260208101848484011115611b4e57600080fd5b611b598482856129f1565b509392505050565b600081359050611b7081612bac565b92915050565b600081359050611b8581612bc3565b92915050565b600081359050611b9a81612bda565b92915050565b600081519050611baf81612bda565b92915050565b600082601f830112611bc657600080fd5b8135611bd6848260208601611b23565b91505092915050565b600081359050611bee81612bf1565b92915050565b600060208284031215611c0657600080fd5b6000611c1484828501611b61565b91505092915050565b60008060408385031215611c3057600080fd5b6000611c3e85828601611b61565b9250506020611c4f85828601611b61565b9150509250929050565b600080600060608486031215611c6e57600080fd5b6000611c7c86828701611b61565b9350506020611c8d86828701611b61565b9250506040611c9e86828701611bdf565b9150509250925092565b60008060008060808587031215611cbe57600080fd5b6000611ccc87828801611b61565b9450506020611cdd87828801611b61565b9350506040611cee87828801611bdf565b925050606085013567ffffffffffffffff811115611d0b57600080fd5b611d1787828801611bb5565b91505092959194509250565b60008060408385031215611d3657600080fd5b6000611d4485828601611b61565b9250506020611d5585828601611b76565b9150509250929050565b60008060408385031215611d7257600080fd5b6000611d8085828601611b61565b9250506020611d9185828601611bdf565b9150509250929050565b600060208284031215611dad57600080fd5b6000611dbb84828501611b8b565b91505092915050565b600060208284031215611dd657600080fd5b6000611de484828501611ba0565b91505092915050565b600060208284031215611dff57600080fd5b6000611e0d84828501611bdf565b91505092915050565b611e1f8161297d565b82525050565b611e2e8161298f565b82525050565b6000611e3f8261287f565b611e498185612895565b9350611e59818560208601612a00565b611e6281612b9b565b840191505092915050565b6000611e788261288a565b611e8281856128a6565b9350611e92818560208601612a00565b611e9b81612b9b565b840191505092915050565b6000611eb18261288a565b611ebb81856128b7565b9350611ecb818560208601612a00565b80840191505092915050565b6000611ee46032836128a6565b91507f4552433732313a207472616e7366657220746f206e6f6e20455243373231526560008301527f63656976657220696d706c656d656e74657200000000000000000000000000006020830152604082019050919050565b6000611f4a601c836128a6565b91507f4552433732313a20746f6b656e20616c7265616479206d696e746564000000006000830152602082019050919050565b6000611f8a6024836128a6565b91507f4552433732313a207472616e7366657220746f20746865207a65726f2061646460008301527f72657373000000000000000000000000000000000000000000000000000000006020830152604082019050919050565b6000611ff06019836128a6565b91507f4552433732313a20617070726f766520746f2063616c6c6572000000000000006000830152602082019050919050565b6000612030602c836128a6565b91507f4552433732313a206f70657261746f7220717565727920666f72206e6f6e657860008301527f697374656e7420746f6b656e00000000000000000000000000000000000000006020830152604082019050919050565b60006120966038836128a6565b91507f4552433732313a20617070726f76652063616c6c6572206973206e6f74206f7760008301527f6e6572206e6f7220617070726f76656420666f7220616c6c00000000000000006020830152604082019050919050565b60006120fc602a836128a6565b91507f4552433732313a2062616c616e636520717565727920666f7220746865207a6560008301527f726f2061646472657373000000000000000000000000000000000000000000006020830152604082019050919050565b60006121626029836128a6565b91507f4552433732313a206f776e657220717565727920666f72206e6f6e657869737460008301527f656e7420746f6b656e00000000000000000000000000000000000000000000006020830152604082019050919050565b60006121c8602e836128a6565b91507f45524337323155524953746f726167653a2055524920736574206f66206e6f6e60008301527f6578697374656e7420746f6b656e0000000000000000000000000000000000006020830152604082019050919050565b600061222e6020836128a6565b91507f4552433732313a206d696e7420746f20746865207a65726f20616464726573736000830152602082019050919050565b600061226e6031836128a6565b91507f45524337323155524953746f726167653a2055524920717565727920666f722060008301527f6e6f6e6578697374656e7420746f6b656e0000000000000000000000000000006020830152604082019050919050565b60006122d4602c836128a6565b91507f4552433732313a20617070726f76656420717565727920666f72206e6f6e657860008301527f697374656e7420746f6b656e00000000000000000000000000000000000000006020830152604082019050919050565b600061233a6029836128a6565b91507f4552433732313a207472616e73666572206f6620746f6b656e2074686174206960008301527f73206e6f74206f776e00000000000000000000000000000000000000000000006020830152604082019050919050565b60006123a0602f836128a6565b91507f4552433732314d657461646174613a2055524920717565727920666f72206e6f60008301527f6e6578697374656e7420746f6b656e00000000000000000000000000000000006020830152604082019050919050565b60006124066021836128a6565b91507f4552433732313a20617070726f76616c20746f2063757272656e74206f776e6560008301527f72000000000000000000000000000000000000000000000000000000000000006020830152604082019050919050565b600061246c6031836128a6565b91507f4552433732313a207472616e736665722063616c6c6572206973206e6f74206f60008301527f776e6572206e6f7220617070726f7665640000000000000000000000000000006020830152604082019050919050565b6124ce816129e7565b82525050565b60006124e08285611ea6565b91506124ec8284611ea6565b91508190509392505050565b600060208201905061250d6000830184611e16565b92915050565b60006080820190506125286000830187611e16565b6125356020830186611e16565b61254260408301856124c5565b81810360608301526125548184611e34565b905095945050505050565b60006040820190506125746000830185611e16565b61258160208301846124c5565b9392505050565b600060208201905061259d6000830184611e25565b92915050565b600060208201905081810360008301526125bd8184611e6d565b905092915050565b600060608201905081810360008301526125df8186611e6d565b90506125ee60208301856124c5565b6125fb6040830184611e16565b949350505050565b6000602082019050818103600083015261261c81611ed7565b9050919050565b6000602082019050818103600083015261263c81611f3d565b9050919050565b6000602082019050818103600083015261265c81611f7d565b9050919050565b6000602082019050818103600083015261267c81611fe3565b9050919050565b6000602082019050818103600083015261269c81612023565b9050919050565b600060208201905081810360008301526126bc81612089565b9050919050565b600060208201905081810360008301526126dc816120ef565b9050919050565b600060208201905081810360008301526126fc81612155565b9050919050565b6000602082019050818103600083015261271c816121bb565b9050919050565b6000602082019050818103600083015261273c81612221565b9050919050565b6000602082019050818103600083015261275c81612261565b9050919050565b6000602082019050818103600083015261277c816122c7565b9050919050565b6000602082019050818103600083015261279c8161232d565b9050919050565b600060208201905081810360008301526127bc81612393565b9050919050565b600060208201905081810360008301526127dc816123f9565b9050919050565b600060208201905081810360008301526127fc8161245f565b9050919050565b600060208201905061281860008301846124c5565b92915050565b6000604051905081810181811067ffffffffffffffff8211171561284557612844612b6c565b5b8060405250919050565b600067ffffffffffffffff82111561286a57612869612b6c565b5b601f19601f8301169050602081019050919050565b600081519050919050565b600081519050919050565b600082825260208201905092915050565b600082825260208201905092915050565b600081905092915050565b60006128cd826129e7565b91506128d8836129e7565b9250827fffffffffffffffffffffffffffffffffffffffffffffffffffffffffffffffff0382111561290d5761290c612adf565b5b828201905092915050565b6000612923826129e7565b915061292e836129e7565b92508261293e5761293d612b0e565b5b828204905092915050565b6000612954826129e7565b915061295f836129e7565b92508282101561297257612971612adf565b5b828203905092915050565b6000612988826129c7565b9050919050565b60008115159050919050565b60007fffffffff0000000000000000000000000000000000000000000000000000000082169050919050565b600073ffffffffffffffffffffffffffffffffffffffff82169050919050565b6000819050919050565b82818337600083830152505050565b60005b83811015612a1e578082015181840152602081019050612a03565b83811115612a2d576000848401525b50505050565b60006002820490506001821680612a4b57607f821691505b60208210811415612a5f57612a5e612b3d565b5b50919050565b6000612a70826129e7565b91507fffffffffffffffffffffffffffffffffffffffffffffffffffffffffffffffff821415612aa357612aa2612adf565b5b600182019050919050565b6000612ab9826129e7565b9150612ac4836129e7565b925082612ad457612ad3612b0e565b5b828206905092915050565b7f4e487b7100000000000000000000000000000000000000000000000000000000600052601160045260246000fd5b7f4e487b7100000000000000000000000000000000000000000000000000000000600052601260045260246000fd5b7f4e487b7100000000000000000000000000000000000000000000000000000000600052602260045260246000fd5b7f4e487b7100000000000000000000000000000000000000000000000000000000600052604160045260246000fd5b6000601f19601f8301169050919050565b612bb58161297d565b8114612bc057600080fd5b50565b612bcc8161298f565b8114612bd757600080fd5b50565b612be38161299b565b8114612bee57600080fd5b50565b612bfa816129e7565b8114612c0557600080fd5b5056fe416e204e465420772f20494420257320686173206265656e206d696e74656420746f202573a26469706673582212204ed41e7c6f2c75319d2c3402498e792251062d5803cbae8cd51472a257d94e5d64736f6c63430008000033",
  "linkReferences": {},
  "deployedLinkReferences": {}
}